:020000040800F2
:1000000078040020050100084F02000803020008E0
:100010004D0200084D010008910A00080000000090
:100020000000000000000000000000004907000878
:100030004F01000800000000C90500083108000851
:100040001F0100081F0100081F0100081F01000810
:100050001F0100081F0100081F0100081F01000800
:100060001F0100081F0100081F0100081F010008F0
:100070001F0100081F0100081F0100081F010008E0
:100080001F0100081F0100081F0100081F010008D0
:100090001F0100081F0100081F0100081F010008C0
:1000A0001F0100081F0100081F0100081F010008B0
:1000B0001F0100081F0100081F0100081F010008A0
:1000C0001F0100081F0100081F0100081F01000890
:1000D0001F010008D10800081F0100081F010008C7
:1000E0001F0100081F0100081F010008DFF810D0E1
:1000F00000F01AF800480047F50A0008AFF3008046
:10010000780400200648804706480047FEE7FEE7DF
:10011000FEE7FEE7FEE7FEE7FEE7FEE7FEE7FEE7B7
:100120004D080008ED000008064C074D06E0E068A9
:1001300040F0010394E8070098471034AC42F6D32E
:10014000FFF7D8FF2C1100084C110008FEE770479C
:100150002DE9F0410022CC7804F00F03E40601D52C
:100160008C7823430C784FF00F0714F0FF0F4FF0FB
:10017000010C1CD005680CFA02F40E882640A64239
:1001800011D1960007FA06F825EA080503FA06F8E1
:1001900048EA0505CE78282E02D0482E02D002E08B
:1001A000446100E00461521C082AE4D305600A8817
:1001B000FF2A1ED94568002202F108060CFA06F44F
:1001C0000E882640A64210D1960007FA06F825EAC6
:1001D000080503FA06F848EA0505CE78282E00D16E
:1001E0004461CE78482E00D10461521C082AE3D322
:1001F0004560BDE8F081002A01D00161704741618E
:100200007047FEE70348042302680121032000F041
:1002100091B90000160000200A48816941F00401EC
:1002200081610948016821F00F010160016841F016
:100230000301016001680160034980150C31086009
:10024000704700000010024004080140FEE77047BC
:1002500070B50F23C27801260178002A1ED0144AF7
:10026000126802F4E062C2F5E062120AC2F104040C
:10027000D3404578A54082781A402A43120101F103
:10028000E02181F80024007800F01F018E40400931
:10029000800000F1E020C0F8006170BD01F01F0097
:1002A00086404809800000F1E020C0F8806170BD00
:1002B0000CED00E002490843024908607047000065
:1002C0000000FA050CED00E070B50025002128467D
:1002D00000F0F2F80024002000F065F9641CE4B29C
:1002E000802CF8D36D1CEDB2082DEFD370BD00004B
:1002F00038B50121042000F069F90121082000F03F
:1003000065F914208DF8030003208DF80200042005
:10031000ADF800000B4C69462046FFF719FF02219B
:10032000ADF8001069462046FFF712FF01220421B4
:100330002046FFF760FF012202212046FFF75BFF06
:1003400038BD0000000801402DE9F04106460024B8
:10035000114D802727FA04F2324002212846FFF788
:100360004AFF012204212846FFF745FF002204210D
:100370002846FFF740FF641CE4B2082CEAD30122B0
:1003800004212846FFF737FF2846BDE8F041002248
:100390000421FFF730BF00000008014010B50B4CEE
:1003A000012202212046FFF726FF012204212046D8
:1003B000FFF721FF002202212046FFF71CFF204605
:1003C0000022BDE810400421FFF715BF00080140DE
:1003D00010B5094C002202212046FFF70CFF012234
:1003E00004212046FFF707FF20460122BDE8104008
:1003F0000221FFF700BF00000008014010B50021F6
:100400004FF47A720020401C9042FCD3491C914268
:10041000F8D3FFF76DFFAE2000F0B4F8D52000F060
:10042000B1F8802000F0AEF8A82000F0ABF83F2033
:1004300000F0A8F8D32000F0A5F8002000F0A2F802
:10044000402000F09FF8A02000F09CF8C02000F0B1
:1004500099F8DA2000F096F8122000F093F8812045
:1004600000F090F8CF2000F08DF8D92000F08AF845
:10047000F12000F087F8DB2000F084F8302000F055
:1004800081F8A42000F07EF8A62000F07BF88D20F3
:1004900000F078F8142000F075F8AF2000F072F842
:1004A000BDE81040FFF710BF0346012000E05843AD
:1004B000491E4A1CFBD1704710B50C4640F0B000F5
:1004C00000F060F8102040EA141000F05BF804F02F
:1004D0000F00BDE8104000F055B800002DE9F041D4
:1004E0001546491E461ECF007006F9B2000EFFF7F2
:1004F000E3FF00240E48203D00EB0515285D00F0C9
:1005000052F8641CE4B2082CF8D3012000EB46003A
:10051000F9B2C0B2FFF7D0FF00242819007A00F02A
:1005200042F8641CE4B2082CF7D3BDE8F081000067
:100530003C0B00082DE9F04781460E4690461F46C9
:1005400000241BE0391B491E1020FFF7ADFFB8FB4C
:10055000F0F000F00F050A2D07D230193035C1B286
:10056000EAB24846FFF7BAFF06E030193735C1B2A4
:10057000EAB24846FFF7B2FF641CE4B2BC42E1D3E2
:10058000BDE8F08710B50446FFF708FF7820FFF7B5
:10059000DBFE0020FFF7D8FE2046FFF7D5FEBDE8C2
:1005A0001040FFF715BF10B50446FFF7F7FE78209F
:1005B000FFF7CAFE4020FFF7C7FE2046FFF7C4FE44
:1005C000BDE81040FFF704BF70470000054A00294E
:1005D00003D09169014391617047916981439161B1
:1005E000704700000010024010B5264A516801F023
:1005F0000C01254B002927D0042927D0082927D012
:100600000360516801F0F0010909204B5C5C01684E
:10061000E1404160546804F4E064240A1C5D21FA5E
:1006200004F48460546804F46054E40A1B5DD94007
:10063000C160526802F44042920B144B1B1F9A5C3B
:10064000B1FBF2F1016110BD0360DAE70360D8E7A6
:10065000516801F47011536803F48033022404EBF1
:10066000914133B153689B0307D5094B594301604E
:10067000C7E7074B59430160C3E7034B5943016088
:10068000BFE700000010024000127A0004000020C2
:1006900000093D0070B586B0044601218803FFF7CC
:1006A00095FF01210420FFF791FF18218DF8171005
:1006B0004FF40071ADF8141003258DF81650204E3C
:1006C00005A93046FFF744FD48218DF81710311574
:1006D000ADF814108DF8165005A93046FFF738FD17
:1006E00001940020ADF810000C21ADF80E10ADF80B
:1006F0000C00ADF80A00ADF80800124C01A9204624
:1007000000F060F9012240F22551204600F03FF947
:100710004FF4A060FFF7CEFD25218DF800100121D8
:100720008DF803108DF801108DF802106846FFF760
:100730008FFD0121204600F0F7F806B070BD0000E3
:10074000000801400038014070470000024801687D
:10075000491C0160704700001600002010B5064CCF
:100760000146204600F090F98021204600F0E8F88C
:100770000028F9D010BD000000380140AFF3008020
:100780000CB50022019200922748016841F48031A3
:1007900001604FF4A063016801F4003100910199F8
:1007A000491C0191009911B901999942F3D101684D
:1007B000890302D50121009100E0009200990129EE
:1007C00030D11A490A6842F010020A600A6822F021
:1007D00003020A600A6842F002020A60416841604E
:1007E00041684160416841F480614160416821F4A1
:1007F0007C114160416841F4E8114160016841F0B9
:100800008071016001688901FCD5416821F0030114
:100810004160416841F0020141604168C1F38101DA
:100820000229FAD10CBD0000001002400020024055
:1008300000F034B84FF0E0200349416100218161AC
:1008400007210161704700003F19010010B50F48F2
:10085000016841F00101016041680D4A11404160A9
:1008600001680C4A11400160016821F48021016097
:10087000416821F4FE0141604FF41F018160FFF7E0
:100880007DFF05494FF00060086010BD0010024078
:100890000000FFF8FFFFF6FE08ED00E010B50020B5
:1008A0000A4C00EB400304EB83014A8842B1521E1C
:1008B00092B24A8022B98A884A80012104F8231022
:1008C000401CC0B20228ECD310BD00001C00002068
:1008D00070B50E4D40F225563146284600F037F8E7
:1008E00000280FD0284600F0CBF8044631462846B1
:1008F00000F012F8074A0648118844543F2902D3F1
:100900000020108070BD491C118070BD003801406E
:10091000380000201400002040F66A120A0A012163
:100920009140C94301807047002904D0818941F476
:10093000005181817047818921F400518181704784
:100940000246002012880A4200D00120704770B58C
:10095000002440F66A12C1F3421301F01F0501267C
:1009600006FA05F2012B0CD0022B0DD0838A13401E
:10097000090A8E40008830400BB100B101242046A6
:1009800070BD83891340F3E7038A1340F0E710B585
:1009900040F66A13C1F3421301F01F040121A14084
:1009A000012B07D0022B07D014303AB102680A435A
:1009B000026010BD0C30F8E71030F6E702688A4399
:1009C000026010BD30B585B004460D46208A4CF655
:1009D000FF710840E98801432182A0894EF6F31196
:1009E0000840A9882A8911436A8902431143A181D9
:1009F000A08A4FF6FF410840A9890143A1826846B9
:100A0000FFF7F2FD1D48844201D1039800E00298EF
:100A1000A189090408D500EBC00101EB0010296889
:100A20004900B0FBF1F007E000EBC00101EB001062
:100A300029688900B0FBF1F06422B0FBF2F10901F2
:100A40000B096FF018056B4300EB8300A3891D04AD
:100A50004FF0320307D503EBC000B0FBF2F000F01B
:100A60000700084306E003EB0010B0FBF2F000F0D3
:100A70000F000843208105B030BD00000038014060
:100A80008088C0F308007047C1F308018180704777
:100A9000FEE70000014A024900F013B8E50A000829
:100AA0003400002002E008C8121F08C1002AFAD151
:100AB00070477047002001E001C1121F002AFBD1DE
:100AC00070472DE9F04116460F460446002503E025
:100AD0003946B047641C6D1C20780028F8D12846A0
:100AE000BDE8F08110B50446E0B2FFF737FE2046BE
:100AF00010BD0000FFF79EFEFFF780FC0A494FF48F
:100B0000E13009688847FFF787FB084CFFF784FB53
:100B10000020401CA042FCDB05A0FFF7BBFF00202B
:100B2000401CA042FCDBF1E7180000203F420F0010
:100B30006170705F72756E0D0A00000000000000A9
:100B4000000000000000000000000000000000F8AD
:100B500000000000000000333000000000100C0610
:100B6000100C0600000000000000000040C07840AB
:100B7000C0784000043F04043F040400007088FC77
:100B800008300000001820FF211E0000F008F000CF
:100B9000E018000000211C031E211E0000F0088840
:100BA000700000001E2123241927211010160E00AA
:100BB000000000000000000000000000000000E055
:100BC000180402000000000718204000000204186A
:100BD000E00000000040201807000000404080F0C6
:100BE000804040000202010F01020200000000F0FC
:100BF000000000000101011F0101010000000000D0
:100C00000000000080B07000000000000000000044
:100C100000000000000101010101010100000000CD
:100C20000000000000303000000000000000000064
:100C300080601804006018060100000000E0100841
:100C40000810E000000F102020100F00001010F816
:100C5000000000000020203F202000000070080855
:100C600008887000003028242221300000300888D5
:100C7000884830000018202020110E000000C020FD
:100C800010F8000000070424243F240000F808881E
:100C9000880808000019212020110E0000E01088AB
:100CA00088180000000F112020110E0000380808DD
:100CB000C83808000000003F0000000000708808ED
:100CC00008887000001C222121221C0000E010086E
:100CD0000810E0000000312222110F00000000C0C7
:100CE000C000000000000030300000000000008064
:100CF0000000000000008060000000000000804054
:100D0000201008000001020408102000404040406C
:100D100040404000040404040404040000081020BF
:100D20004080000000201008040201000070480804
:100D30000808F0000000003036010000C030C8286C
:100D4000E810E0000718272423140B000000C03827
:100D5000E0000000203C23020227382008F88888A1
:100D600088700000203F202020110E00C0300808AD
:100D700008083800071820202010080008F8080884
:100D80000810E000203F202020100F0008F888887D
:100D9000E8081000203F20202320180008F8888849
:100DA000E8081000203F200003000000C0300808C1
:100DB0000838000007182020221E020008F808004A
:100DC0000008F808203F210101213F20000808F811
:100DD000080800000020203F202000000000080834
:100DE000F8080800C08080807F00000008F888C0F4
:100DF00028180800203F20012638200008F80800A5
:100E000000000000203F20202020300008F8F800DB
:100E1000F8F80800203F003F003F200008F830C0ED
:100E20000008F808203F200007183F00E0100808DD
:100E30000810E0000F10202020100F0008F808080C
:100E40000808F000203F210101010000E01008081F
:100E50000810E0000F18242438504F0008F8888844
:100E600088887000203F2000030C30200070880824
:100E7000080838000038202121221C00180808F832
:100E8000080818000000203F2000000008F80800B3
:100E90000008F808001F202020201F000878880084
:100EA00000C83808000007380E010000F80800F8F4
:100EB0000008F800033C0700073C0300081868809E
:100EC0008068180820302C03032C30200838C80014
:100ED000C83808000000203F200000001008080863
:100EE000C83808002038262120201800000000FE05
:100EF000020202000000007F40404000000C30C0B1
:100F000000000000000000010638C00000020202DC
:100F1000FE000000004040407F000000000004028E
:100F200002020400000000000000000000000000B9
:100F300000000000808080808080808000020204A9
:100F400000000000000000000000000000008080A1
:100F5000808000000019242222223F2008F800800F
:100F600080000000003F112020110E0000000080D2
:100F700080800000000E1120202011000000008061
:100F80008088F800000E112020103F200000808093
:100F900080800000001F222222221300008080F0A7
:100FA000888888180020203F2020000000008080D2
:100FB00080808000006B94949493600008F8008017
:100FC00080800000203F210000203F200080989872
:100FD000000000000020203F2020000000000080D2
:100FE0009898000000C08080807F000008F8000012
:100FF00080808000203F24022D302000000808F867
:10100000000000000020203F202000008080808021
:1010100080808000203F20003F20003F80800080B3
:1010200080800000203F210000203F2000008080C1
:1010300080800000001F202020201F008080008072
:101040008000000080FFA12020110E000000008021
:1010500080808000000E112020A0FF808080800012
:101060008080800020203F2120000100000080803F
:10107000808080000033242424241900008080E034
:10108000808000000000001F202000008080000001
:1010900000808000001F202020103F2080808000E2
:1010A0000080808000010E300806010080800080F2
:1010B000008080800F300C030C300F000080800017
:1010C000808080000020312E0E3120008080800042
:1010D0000080808080818E701806010000808080F2
:1010E000808080000021302C222130000000000090
:1010F000807C020200000000003F40400000000031
:10110000FF00000000000000FF0000000002027C61
:10111000800000000040403F000000000006010188
:101120000202040400000000000000004C1100084E
:101130000000002038000000A40A00088411000804
:101140003800002040040000B40A00080204060829
:10115000000000000102030401020304060708095D
:101160000000000095060008000001006400000077
:101170000502000800000100E80300004D07000818
:04118000000000006B
:0400000508000105E9
:00000001FF
