:020000040800F2
:100000008804002001010008010300080D02000817
:100010002502000849010008950B000800000000B7
:100020000000000000000000000000004D08000873
:100030004B01000800000000CF0600083509000849
:100040001B0100081B0100081B0100081B01000820
:100050001B0100081B0100081B0100081B01000810
:100060001B0100081B0100081B0100081B01000800
:100070001B0100081B0100081B0100081B010008F0
:100080001B0100081B0100081B0100081B010008E0
:100090001B0100081B0100081B0100081B010008D0
:1000A0001B0100081B0100081B0100081B010008C0
:1000B0001B0100081B0100081B0100081B010008B0
:1000C0001B0100081B0100081B0100081B010008A0
:1000D0001B010008D50900081B0100081B010008CE
:1000E0001B0100081B0100081B010008DFF80CD0F1
:1000F00000F018F800480047610D0008880400204F
:100100000648804706480047FEE7FEE7FEE7FEE7B1
:10011000FEE7FEE7FEE7FEE7FEE7FEE7510900081F
:10012000ED000008064C074D06E0E06840F00103D2
:1001300094E8070098471034AC42F6D3FFF7DAFF93
:100140002414000844140008FEE770472DE9F0412C
:100150000022CC7804F00F03E40601D58C78234309
:100160000C784FF00F0714F0FF0F4FF0010C1CD06C
:1001700005680CFA02F40E882640A64211D19600BA
:1001800007FA06F825EA080503FA06F848EA05051D
:10019000CE78282E02D0482E02D002E0446100E042
:1001A0000461521C082AE4D305600A88FF2A1ED97C
:1001B0004568002202F108060CFA06F40E88264073
:1001C000A64210D1960007FA06F825EA080503FAB8
:1001D00006F848EA0505CE78282E00D14461CE788D
:1001E000482E00D10461521C082AE3D34560BDE8C3
:1001F000F0810246002092680A4200D00120704738
:10020000002A01D00161704741617047FEE700009C
:100210000348042302680121032000F0FBB9000019
:1002200028000020FEE7000038B50121042000F07E
:100230004FFAA820ADF8000010208DF80300032429
:100240008DF802400B4D69462846FFF77FFF40219D
:10025000ADF8001048218DF803108DF80240694672
:100260002846FFF773FF012000F02CF8002000F073
:1002700039F838BD0008014040210148FFF7B9BFF7
:10028000000801402DE9F0410746002500244FF009
:10029000800828FA04F00646384000F01BF80120D8
:1002A00000F020F8FFF7E8FF012800D135430020D7
:1002B00000F018F8641CE4B2082CEAD32846BDE824
:1002C000F0810000024608210148FFF799BF0000B5
:1002D00000080140024680210148FFF791BF00005D
:1002E00000080140024620210148FFF789BF0000B5
:1002F000000801400020FFF7E5BF0120FFF7E2BF43
:100300007047000070B50F23C27801260178002ADB
:100310001ED0144A126802F4E062C2F5E062120ACA
:10032000C2F10404D3404578A54082781A402A439C
:10033000120101F1E02181F80024007800F01F0192
:100340008E404009800000F1E020C0F8006170BDDF
:1003500001F01F0086404809800000F1E020C0F84D
:10036000806170BD0CED00E002490843024908605D
:10037000704700000000FA050CED00E070B50025A4
:100380000021284600F008F90024002000F08EF932
:10039000641CE4B2802CF8D36D1CEDB2082DEFD3B1
:1003A00070BD0000F8B50121042000F091F9012191
:1003B000082000F08DF914208DF8030003208DF83B
:1003C00002004FF48074ADF800400C4E6946304690
:1003D000FFF7BCFEA501ADF80050094F694638464D
:1003E000FFF7B4FE012221463046FFF709FF012244
:1003F00029463846FFF704FFF8BD00000008014019
:10040000000C01402DE9F04707460024DFF850A01A
:10041000144E4FF080084FF480494FF4807528FA4D
:1004200004F23A4049465046FFF7EAFE01222946C7
:100430003046FFF7E5FE002229463046FFF7E0FE92
:10044000641CE4B2082CEAD3012229463046FFF7A7
:10045000D7FE29463046BDE8F0470022FFF7D0BE60
:10046000000C0140000801402DE9F04101220C4D33
:10047000940321462846FFF7C3FE0122094F1602C6
:1004800031463846FFF7BCFE002221462846FFF7DA
:10049000B7FE31463846BDE8F0410022FFF7B0BE56
:1004A000000C01400008014070B50A4D4FF4804433
:1004B000002221462846FFF7A3FE0122110206482A
:1004C000FFF79EFE21462846BDE870400122FFF757
:1004D00097BE0000000C01400008014010B500214B
:1004E0004FF47A720020401C9042FCD3491C914288
:1004F000F8D3FFF757FFAE2000F0C7F8D52000F083
:10050000C4F8802000F0C1F8A82000F0BEF83F2019
:1005100000F0BBF8D32000F0B8F8002000F0B5F8E8
:10052000402000F0B2F8A02000F0AFF8C02000F0AA
:10053000ACF8DA2000F0A9F8122000F0A6F881202B
:1005400000F0A3F8CF2000F0A0F8D92000F09DF82B
:10055000F12000F09AF8DB2000F097F8302000F04E
:1005600094F8A42000F091F8A62000F08EF88D20D9
:1005700000F08BF8142000F088F8AF2000F085F828
:10058000BDE81040FFF7FABE0346012000E05843E3
:10059000491E4A1CFBD1704710B50C4640F0B00014
:1005A00000F073F8102040EA141000F06EF804F028
:1005B0000F00BDE8104000F068B800002DE9F041E0
:1005C0001546491E461ECF007006F9B2000EFFF711
:1005D000E3FF00240E48203D00EB0515285D00F0E8
:1005E00065F8641CE4B2082CF8D3012000EB460047
:1005F000F9B2C0B2FFF7D0FF00242819007A00F04A
:1006000055F8641CE4B2082CF7D3BDE8F081000073
:10061000340E00082DE9F04781460E4690461F46ED
:1006200000241BE0391B491E1020FFF7ADFFB8FB6B
:10063000F0F000F00F050A2D07D230193035C1B2A5
:10064000EAB24846FFF7BAFF06E030193735C1B2C3
:10065000EAB24846FFF7B2FF641CE4B2BC42E1D301
:10066000BDE8F0872DE9F04107460D461646002407
:1006700006E02819C1B23846FFF7A0FF641CE4B2B7
:10068000325D002AF5D1BDE8F08110B50446FFF7D0
:10069000EBFE7820FFF7B6FE0020FFF7B3FE204602
:1006A000FFF7B0FEBDE81040FFF7FEBE10B50446F0
:1006B000FFF7DAFE7820FFF7A5FE4020FFF7A2FE45
:1006C0002046FFF79FFEBDE81040FFF7EDBE7047E4
:1006D000054A002903D091690143916170479169EE
:1006E00081439161704700000010024010B5264A16
:1006F000516801F00C01254B002927D0042927D08F
:10070000082927D00360516801F0F0010909204B46
:100710005C5C0168E1404160546804F4E064240AD0
:100720001C5D21FA04F48460546804F46054E40A03
:100730001B5DD940C160526802F44042920B144BD9
:100740001B1F9A5CB1FBF2F1016110BD0360DAE797
:100750000360D8E7516801F47011536803F48033E3
:10076000022404EB914133B153689B0307D5094B35
:1007700059430160C7E7074B59430160C3E7034B87
:1007800059430160BFE700000010024000127A00E8
:100790000400002000093D0070B586B00446012128
:1007A0008803FFF795FF01210420FFF791FF18212F
:1007B0008DF817104FF40071ADF8141003258DF863
:1007C0001650204E05A93046FFF7C0FC48218DF891
:1007D00017103115ADF814108DF8165005A93046D4
:1007E000FFF7B4FC01940020ADF810000C21ADF827
:1007F0000E10ADF80C00ADF80A00ADF80800124C70
:1008000001A9204600F060F9012240F2255120465E
:1008100000F03FF94FF4A060FFF7A6FD25218DF809
:10082000001001218DF803108DF801108DF80210D1
:100830006846FFF767FD0121204600F0F7F806B093
:1008400070BD000000080140003801407047000002
:1008500002480168491C0160704700002800002020
:1008600010B5064C0146204600F090F98021204644
:1008700000F0E8F80028F9D010BD00000038014071
:10088000AFF300800CB50022019200922748016866
:1008900041F4803101604FF4A063016801F400313C
:1008A00000910199491C0191009911B9019999424E
:1008B000F3D10168890302D50121009100E0009283
:1008C0000099012930D11A490A6842F010020A60E1
:1008D0000A6822F003020A600A6842F002020A6013
:1008E0004168416041684160416841F48061416014
:1008F000416821F47C114160416841F4E811416094
:10090000016841F08071016001688901FCD541688E
:1009100021F003014160416841F0020141604168FA
:10092000C1F381010229FAD10CBD00000010024080
:100930000020024000F034B84FF0E020034941614C
:100940000021816107210161704700003F1901000A
:1009500010B50F48016841F00101016041680D4A7E
:100960001140416001680C4A11400160016821F4A6
:1009700080210160416821F4FE0141604FF41F01B4
:100980008160FFF77DFF05494FF00060086010BDF2
:10099000001002400000FFF8FFFFF6FE08ED00E047
:1009A00010B500200A4C00EB400304EB83014A8899
:1009B00042B1521E92B24A8022B98A884A800121ED
:1009C00004F82310401CC0B20228ECD310BD000074
:1009D0002C00002070B50E4D40F2255631462846B9
:1009E00000F037F800280FD0284600F0CBF8044676
:1009F0003146284600F012F8074A06481188445448
:100A00003F2902D30020108070BD491C118070BDA9
:100A100000380140480000201400002040F66A120F
:100A20000A0A01219140C94301807047002904D07E
:100A3000818941F4005181817047818921F40051FD
:100A4000818170470246002012880A4200D00120AE
:100A5000704770B5002440F66A12C1F3421301F0EA
:100A60001F05012606FA05F2012B0CD0022B0DD032
:100A7000838A1340090A8E40008830400BB100B1D0
:100A80000124204670BD83891340F3E7038A134095
:100A9000F0E710B540F66A13C1F3421301F01F04EA
:100AA0000121A140012B07D0022B07D014303AB10D
:100AB00002680A43026010BD0C30F8E71030F6E718
:100AC00002688A43026010BD30B585B004460D4609
:100AD000208A4CF6FF710840E98801432182A089F1
:100AE0004EF6F3110840A9882A8911436A89024306
:100AF0001143A181A08A4FF6FF410840A989014313
:100B0000A1826846FFF7F2FD1D48844201D1039897
:100B100000E00298A189090408D500EBC00101EBAF
:100B2000001029684900B0FBF1F007E000EBC001BC
:100B300001EB001029688900B0FBF1F06422B0FBE2
:100B4000F2F109010B096FF018056B4300EB83000C
:100B5000A3891D044FF0320307D503EBC000B0FB9F
:100B6000F2F000F00700084306E003EB0010B0FBD2
:100B7000F2F000F00F000843208105B030BD000006
:100B8000003801408088C0F308007047C1F30801B5
:100B900081807047FEE7FFF747BB70B504460D46FE
:100BA000164600F0A3F8FFF7A5FB0220FFF76AFB4B
:100BB000C4F30740FFF766FBC4F30720FFF762FBAF
:100BC000E0B2FFF75FFB002404E0285DFFF75AFB6B
:100BD000641CA4B2B442F8D3FFF78FFBBDE87040A9
:100BE00000F056B870B504460D461646FFF782FB76
:100BF0000320FFF747FBC4F30740FFF743FBC4F3B1
:100C00000720FFF73FFBE0B2FFF73CFB002404E0C6
:100C1000FF20FFF737FB2855641CB442F8D370BDA2
:100C200070B505460C46FFF765FB9F20FFF72AFBD2
:100C3000FF20FFF727FB2870FF20FFF723FB4FF66D
:100C4000FF7101EA00202080FF20FFF71BFB2188B5
:100C500008432080BDE87040FFF74FBB10B5044645
:100C600000F044F8FFF746FB2020FFF70BFBC4F32E
:100C70000740FFF707FBC4F30720FFF703FBE0B2D1
:100C8000FFF700FBFFF739FBBDE81040AFF3008032
:100C900010B54CF25034FFF72DFB0520FFF7F2FAA8
:100CA00001E0641E44B1FF20FFF7ECFAC007F8D161
:100CB000BDE81040FFF721BB04A000F021F807A217
:100CC00001210320FFF7CEFCF2E70000535049203A
:100CD00054696D656F7574210A00000053504920F6
:100CE00054696D656F7574210000000010B5FFF741
:100CF00001FB0620FFF7C6FABDE81040FFF7FDBA7A
:100D0000014A024900F013B8510D000844000020C8
:100D100002E008C8121F08C1002AFAD170477047C4
:100D2000002001E001C1121F002AFBD170472DE90C
:100D3000F04116460F460446002503E03946B04709
:100D4000641C6D1C20780028F8D12846BDE8F0818D
:100D500010B50446E0B2FFF783FD204610BD000049
:100D6000FFF7EAFDFFF7BAFB2E4C4FF4E130E168E4
:100D70008847FFF710FF01212BA20846FFF772FCFE
:100D8000A11C881EFFF74CFF0223227805210120B9
:100D9000FFF740FC042362880C210120FFF73AFC96
:100DA0000020FFF75BFF0422211D0020FFF7F5FE66
:100DB000042204F108010020FFF714FF241D022380
:100DC000227803211846FFF725FC022362780621CA
:100DD0001846FFF71FFC0223A27809211846FFF7E7
:100DE00019FC0223E2780C211846FFF713FC241D9E
:100DF0000321227802230846FFF70CFC62780223C5
:100E000006210320FFF706FCA27802230921032014
:100E1000FFF700FCE27802230C210320FFF7FAFB26
:100E2000FEE70000180000204D49443A20202044ED
:100E300049443A00000000000000000000000000EB
:100E400000000000000000F8000000000000003377
:100E50003000000000100C06100C0600000000001E
:100E60000000000040C07840C0784000043F040407
:100E70003F040400007088FC08300000001820FFC8
:100E8000211E0000F008F000E018000000211C0303
:100E90001E211E0000F00888700000001E2123247F
:100EA0001927211010160E0000000000000000009D
:100EB00000000000000000E018040200000000072D
:100EC0001820400000020418E00000000040201834
:100ED00007000000404080F0804040000202010F07
:100EE00001020200000000F0000000000101011FEB
:100EF00001010100000000000000000080B070004F
:100F000000000000000000000000000000010101DE
:100F1000010101010000000000000000003030006D
:100F20000000000000000000806018040060180647
:100F30000100000000E010080810E000000F102081
:100F400020100F00001010F8000000000020203FCB
:100F50002020000000700808088870000030282455
:100F600022213000003008888848300000182020F6
:100F700020110E000000C02010F80000000704241B
:100F8000243F240000F80888880808000019212060
:100F900020110E0000E0108888180000000F1120BA
:100FA00020110E0000380808C83808000000003F73
:100FB000000000000070880808887000001C2221D2
:100FC00021221C0000E010080810E000000031227F
:100FD00022110F00000000C0C0000000000000301F
:100FE0003000000000000080000000000000806071
:100FF00000000000000080402010080000010204F2
:1010000008102000404040404040400004040404D8
:101010000404040000081020408000000020100894
:1010200004020100007048080808F00000000030C9
:1010300036010000C030C828E810E0000718272457
:1010400023140B000000C038E0000000203C230205
:101050000227382008F8888888700000203F202068
:1010600020110E00C030080808083800071820209A
:101070002010080008F808080810E000203F202091
:1010800020100F0008F88888E8081000203F202072
:101090002320180008F88888E8081000203F200066
:1010A00003000000C030080808380000071820209E
:1010B000221E020008F808000008F808203F21015D
:1010C00001213F20000808F8080800000020203F08
:1010D0002020000000000808F8080800C080808078
:1010E0007F00000008F888C028180800203F200171
:1010F0002638200008F8080000000000203F2020CB
:101100002020300008F8F800F8F80800203F003FE1
:10111000003F200008F830C00008F808203F2000F9
:1011200007183F00E01008080810E0000F1020200A
:1011300020100F0008F808080808F000203F2101DF
:1011400001010000E01008080810E0000F18242436
:1011500038504F0008F8888888887000203F2000A9
:10116000030C30200070880808083800003820215F
:1011700021221C00180808F8080818000000203F69
:101180002000000008F808000008F808001F2020D0
:1011900020201F000878880000C8380800000738A1
:1011A0000E010000F80800F80008F800033C0700F2
:1011B000073C0300081868808068180820302C035A
:1011C000032C30200838C800C83808000000203F31
:1011D0002000000010080808C83808002038262120
:1011E00020201800000000FE020202000000007F24
:1011F00040404000000C30C0000000000000000132
:101200000638C00000020202FE000000004040401C
:101210007F00000000000402020204000000000041
:1012200000000000000000000000000080808080BE
:1012300080808080000202040000000000000000A6
:10124000000000000000808080800000001924223F
:1012500022223F2008F8008080000000003F11207B
:1012600020110E000000008080800000000E112080
:1012700020201100000000808088F800000E11205E
:1012800020103F200000808080800000001F22226C
:1012900022221300008080F0888888180020203FD8
:1012A000202000000000808080808000006B9494EB
:1012B0009493600008F8008080800000203F2100A7
:1012C00000203F2000809898000000000020203F70
:1012D00020200000000000809898000000C080805E
:1012E000807F000008F8000080808000203F2402FA
:1012F0002D302000000808F8000000000020203FEA
:10130000202000008080808080808000203F20009E
:101310003F20003F8080008080800000203F21002F
:1013200000203F200000808080800000001F2020DF
:1013300020201F00808000808000000080FFA1200E
:1013400020110E000000008080808000000E11201F
:1013500020A0FF80808080008080800020203F21AE
:101360002000010000008080808080000033242461
:1013700024241900008080E0808000000000001F0D
:10138000202000008080000000808000001F2020BE
:1013900020103F20808080000080808000010E307F
:1013A0000806010080800080008080800F300C03E0
:1013B0000C300F0000808000808080000020312EE3
:1013C0000E312000808080000080808080818E70BF
:1013D0001806010000808080808080000021302C71
:1013E0002221300000000000807C0202000000008A
:1013F000003F404000000000FF000000000000002F
:10140000FF0000000002027C800000000040403F1E
:1014100000000000000601010202040400000000B8
:1014200000000000441400080000002048000000F4
:10143000100D00088C140008480000204004000033
:10144000200D000802040608000000000102030449
:10145000010203040607080900000000AA00AA0010
:10146000A1B2C3D4AAAAAAAA990700080000000042
:1014700000000100640000001102000800000100EB
:0C148000E8030000510800080000000014
:0400000508000101ED
:00000001FF
